{
  "contractName": "Wallet",
  "abi": [
    {
      "anonymous": false,
      "inputs": [
        {
          "indexed": true,
          "internalType": "address",
          "name": "sender",
          "type": "address"
        },
        {
          "indexed": false,
          "internalType": "uint256",
          "name": "amount",
          "type": "uint256"
        }
      ],
      "name": "Deposited",
      "type": "event"
    },
    {
      "anonymous": false,
      "inputs": [
        {
          "indexed": true,
          "internalType": "address",
          "name": "receiver",
          "type": "address"
        },
        {
          "indexed": false,
          "internalType": "uint256",
          "name": "amount",
          "type": "uint256"
        }
      ],
      "name": "Withdrawn",
      "type": "event"
    },
    {
      "inputs": [
        {
          "internalType": "address",
          "name": "",
          "type": "address"
        }
      ],
      "name": "balances",
      "outputs": [
        {
          "internalType": "uint256",
          "name": "",
          "type": "uint256"
        }
      ],
      "stateMutability": "view",
      "type": "function",
      "constant": true
    },
    {
      "inputs": [],
      "name": "deposit",
      "outputs": [],
      "stateMutability": "payable",
      "type": "function",
      "payable": true
    },
    {
      "inputs": [
        {
          "internalType": "uint256",
          "name": "amount",
          "type": "uint256"
        }
      ],
      "name": "withdraw",
      "outputs": [],
      "stateMutability": "nonpayable",
      "type": "function"
    },
    {
      "inputs": [],
      "name": "getBalance",
      "outputs": [
        {
          "internalType": "uint256",
          "name": "",
          "type": "uint256"
        }
      ],
      "stateMutability": "view",
      "type": "function",
      "constant": true
    }
  ],
  "bytecode": "0x608060405234801561001057600080fd5b506105c0806100206000396000f3fe60806040526004361061003f5760003560e01c806312065fe01461004457806327e235e31461006f5780632e1a7d4d146100ac578063d0e30db0146100d5575b600080fd5b34801561005057600080fd5b506100596100df565b604051610066919061043b565b60405180910390f35b34801561007b57600080fd5b506100966004803603810190610091919061037a565b610125565b6040516100a3919061043b565b60405180910390f35b3480156100b857600080fd5b506100d360048036038101906100ce91906103a3565b61013d565b005b6100dd6102ab565b005b60008060003373ffffffffffffffffffffffffffffffffffffffff1673ffffffffffffffffffffffffffffffffffffffff16815260200190815260200160002054905090565b60006020528060005260406000206000915090505481565b806000803373ffffffffffffffffffffffffffffffffffffffff1673ffffffffffffffffffffffffffffffffffffffff1681526020019081526020016000205410156101be576040517f08c379a00000000000000000000000000000000000000000000000000000000081526004016101b59061041b565b60405180910390fd5b806000803373ffffffffffffffffffffffffffffffffffffffff1673ffffffffffffffffffffffffffffffffffffffff168152602001908152602001600020600082825461020c91906104bd565b925050819055503373ffffffffffffffffffffffffffffffffffffffff166108fc829081150290604051600060405180830381858888f19350505050158015610259573d6000803e3d6000fd5b503373ffffffffffffffffffffffffffffffffffffffff167f7084f5476618d8e60b11ef0d7d3f06914655adb8793e28ff7f018d4c76d505d5826040516102a0919061043b565b60405180910390a250565b346000803373ffffffffffffffffffffffffffffffffffffffff1673ffffffffffffffffffffffffffffffffffffffff16815260200190815260200160002060008282546102f99190610467565b925050819055503373ffffffffffffffffffffffffffffffffffffffff167f2da466a7b24304f47e87fa2e1e5a81b9831ce54fec19055ce277ca2f39ba42c434604051610346919061043b565b60405180910390a2565b60008135905061035f8161055c565b92915050565b60008135905061037481610573565b92915050565b60006020828403121561038c57600080fd5b600061039a84828501610350565b91505092915050565b6000602082840312156103b557600080fd5b60006103c384828501610365565b91505092915050565b60006103d9601483610456565b91507f496e73756666696369656e742062616c616e63650000000000000000000000006000830152602082019050919050565b61041581610523565b82525050565b60006020820190508181036000830152610434816103cc565b9050919050565b6000602082019050610450600083018461040c565b92915050565b600082825260208201905092915050565b600061047282610523565b915061047d83610523565b9250827fffffffffffffffffffffffffffffffffffffffffffffffffffffffffffffffff038211156104b2576104b161052d565b5b828201905092915050565b60006104c882610523565b91506104d383610523565b9250828210156104e6576104e561052d565b5b828203905092915050565b60006104fc82610503565b9050919050565b600073ffffffffffffffffffffffffffffffffffffffff82169050919050565b6000819050919050565b7f4e487b7100000000000000000000000000000000000000000000000000000000600052601160045260246000fd5b610565816104f1565b811461057057600080fd5b50565b61057c81610523565b811461058757600080fd5b5056fea26469706673582212209925cece9d107f0ead6033081081d11505ddb4d2f9d81a0b863b132287fd23f964736f6c63430008000033",
  "immutableReferences": {},
  "source": "// SPDX-License-Identifier: MIT\r\npragma solidity ^0.8.0;\r\n\r\ncontract Wallet {\r\n    mapping(address => uint256) public balances;\r\n\r\n    //  \r\n    event Deposited(address indexed sender, uint256 amount);\r\n    event Withdrawn(address indexed receiver, uint256 amount);\r\n\r\n    // \r\n    function deposit() external payable {\r\n        balances[msg.sender] += msg.value;\r\n\r\n        emit Deposited(msg.sender, msg.value);\r\n    }\r\n\r\n    // \r\n    function withdraw(uint256 amount) external {\r\n        require(balances[msg.sender] >= amount, \"Insufficient balance\");\r\n        \r\n        balances[msg.sender] -= amount;\r\n\r\n        payable(msg.sender).transfer(amount);\r\n\r\n        emit Withdrawn(msg.sender, amount);\r\n    }\r\n\r\n    function getBalance() external view returns (uint256) {\r\n        return balances[msg.sender];\r\n    }\r\n}",
  "sourcePath": "C:\\Users\\cmw99\\workdir\\web-wallet-integration\\contracts\\Wallet.sol",
  "compiler": {
    "name": "solc",
    "version": "0.8.0+commit.c7dfd78e.Emscripten.clang"
  },
  "schemaVersion": "3.4.16",
  "updatedAt": "2025-01-21T06:02:23.869Z",
  "networkType": "ethereum",
  "devdoc": {
    "kind": "dev",
    "methods": {},
    "version": 1
  },
  "userdoc": {
    "kind": "user",
    "methods": {},
    "version": 1
  }
}